:100000000C942A000C9447000C9447000C94470071
:100010000C9447000C9447000C9447000C94470044
:100020000C9447000C9447000C9447000C94470034
:100030000C9447000C9447000C9447000C94470024
:100040000C9447000C9447000C9447000C94470014
:100050000C94470011241FBECFE5D4E0DEBFCDBF16
:1000600010E0A0E6B0E0E8E1F2E002C005900D92F9
:10007000A436B107D9F710E0A4E6B0E001C01D92A4
:10008000A636B107E1F70E94BE000C940A010C9459
:1000900000008FEF81BB17BA88BB82BB08956AE06E
:1000A00070E00E94E3009B019091630040E050E00B
:1000B000E4ECF9E00EC066B3862F8095892319F031
:1000C000609363000895CF010197F1F74F5F5F4F91
:1000D000962F421753077CF39093630080E00895B6
:1000E000362F80FD33E081FD32E082FD31E08091EA
:1000F000650090E0FC01E05AFF4F208122BB019691
:1001000063E070E00E94E30080936500832F089510
:1001100080FD60E081FD62E082FD61E08FEF82BBE7
:10012000862F089580FD60E081FD62E0809161008E
:1001300082BB80E197E229E130E0F9013197F1F7E4
:100140000197D9F78FEF82BB862F089580FD63E07A
:1001500082FD61E083FF10C08091640090E0FC01AB
:10016000E05AFF4F208122BB019663E070E00E94BD
:10017000E3008093640062E0862F08951F938FEF61
:1001800081BB17BA88BB82BB13E08CE291E00E946E
:100190004F00113059F0113028F0123059F013305F
:1001A000A1F70CC060E00E9470000BC061E00E94EB
:1001B000920007C062E00E94A60003C063E00E94B4
:1001C0008800182FE2CF97FB092E07260AD077FD6B
:1001D00004D00CD006D000201AF4709561957F4FA2
:1001E0000895F6F7909581959F4F0895AA1BBB1B24
:1001F00051E107C0AA1FBB1FA617B70710F0A61B27
:10020000B70B881F991F5A95A9F780959095BC0147
:08021000CD010895F894FFCF21
:04021800FCF30FFFE5
:00000001FF
